:10000000FC1F002055020000E1020000E102000098
:10001000E1020000E1020000E10200000000000037
:10002000000000000000000000000000C12E0000E1
:10003000E1020000000000003D310000A731000097
:10004000E1020000E1020000E1020000E102000024
:10005000E1020000E1020000E1020000E102000014
:10006000E1020000E1020000E1020000E102000004
:10007000E1020000E1020000E1020000E1020000F4
:10008000E1020000E1020000E1020000E1020000E4
:10009000E1020000E1020000E1020000E1020000D4
:1000A000E1020000E1020000E1020000E1020000C4
:1000B000E1020000E1020000E1020000E1020000B4
:1000C0000000000000000000000000000000000030
:1000D0000000000000000000000000000000000020
:1000E0000000000000000000000000000000000010
:1000F0000000000000000000000000000000000000
:1001000000000000000000000000000000000000EF
:1001100000000000000000000000000000000000DF
:1001200000000000000000000000000000000000CF
:1001300000000000000000000000000000000000BF
:1001400000000000000000000000000080B485B046
:1001500000AF78600C4B1B68FB60FA684FF6FF033A
:100160001340FB607B681A02FB68134343F0BF63D4
:1001700043F40033FB60044AFB68136000BF14378C
:10018000BD465DF8047B70470CED00E080B487B09D
:1001900000AFF860B9607A60FB687B6105E07B695D
:1001A0005A1C7A61BA68D2B21A707B685A1E7A6099
:1001B000002BF4D1FB6818461C37BD465DF8047B64
:1001C000704780B584B000AF786007F10D0207F189
:1001D0000E0107F10F03184603F0ACF8F5E780B500
:1001E00084B000AF786007F10D0207F10E0107F14E
:1001F0000F03184603F09EF8F5E780B584B002AF10
:1002000003F062F80020FFF7A1FF00230193012310
:100210000093002380220C490C4800F065F87860B8
:1002200000230193012300930023802206490848FC
:1002300000F05AF878607B68012B02D100F0ECFDE9
:1002400000BF00BFFDE700BF84330000C301000012
:10025000DF01000080B586B000AF1C4B7B611C4BFA
:100260003B611C4A194BD31A9B107B600023FB6037
:100270000CE03B691A687B691A607B6904337B6117
:100280003B6904333B61FB680133FB60FA687B68C0
:100290009A42EED3104B1B687B61104A0E4BD31A67
:1002A0009B107B600023BB6008E07B6900221A6022
:1002B0007B6904337B61BB680133BB60BA687B68D0
:1002C0009A42F2D3FFF799FF00BFFDE7000000203C
:1002D000A43300000800002008000020340900209A
:1002E00080B400AF00BFFDE780B58CB004AFF8600C
:1002F000B9603B601346FB80FB889B00184602F008
:100300004FFA78617B69002B0ED0582002F048FA32
:10031000F861FB69002B03D0FB697A691A6305E079
:10032000786902F01DFB01E00023FB61FB69002BF3
:1003300013D0FA8800230393FB690293FB6A0193AD
:10034000BB6A00933B68B968F86800F00EF8F8697A
:1003500000F0A1F80123BB6102E04FF0FF33BB6165
:10036000BB6918462037BD4680BD80B588B000AF58
:10037000F860B9607A603B603B6B186B7B689B00F0
:100380001A46A521FFF702FF3B6B1A6B7B6803F14E
:100390008043013B9B001344BB61BB6923F007030F
:1003A000BB61BB6903F00703002B0AD04FF00503C4
:1003B00083F31188BFF36F8FBFF34F8F7B6100BF53
:1003C000FEE7BB68002B1FD00023FB6112E0BA6878
:1003D000FB69134419783A6BFB69134434330A46BA
:1003E0001A70BA68FB6913441B78002B06D0FB69AE
:1003F0000133FB61FB69092BE9D900E000BF3B6BCE
:10040000002283F83D2003E03B6B002283F8342078
:10041000BB6A042B01D90423BB623B6BBA6ADA6264
:100420003B6BBA6A9A643B6B0022DA643B6B043321
:10043000184602F051FC3B6B1833184602F04CFC96
:100440003B6B3A6B1A61BB6AC3F105023B6B9A6165
:100450003B6B3A6B5A623B6B5033042200211846C7
:10046000FFF794FE3B6B5433012200211846FFF73F
:100470008DFE3A68F968B86902F0C2FC02463B6B2F
:100480001A60FB6A002B02D0FB6A3A6B1A6000BF4D
:100490002037BD4680BD80B582B000AF786002F0E5
:1004A000F3FD2D4B1B6801332B4A13602B4B1B684C
:1004B000002B09D1294A7B681360274B1B68012B4D
:1004C00010D101F001FA0DE0254B1B68002B09D17A
:1004D000224B1B68DA6A7B68DB6A9A4202D81F4AA1
:1004E0007B6813601F4B1B6801331E4A13601D4B52
:1004F0001A687B681A647B68DB6A01229A401A4B8F
:100500001B681343184A13607B68DA6A13469B0022
:1005100013449B00154A1A447B680433194610465D
:1005200002F0E7FB02F0E0FD0D4B1B68002B0ED044
:100530000A4B1B68DA6A7B68DB6A9A4207D20C4B6B
:100540004FF080521A60BFF34F8FBFF36F8F00BF21
:100550000837BD4680BD00BFE00000200800002035
:10056000EC000020FC000020E80000200C0000202F
:1005700004ED00E080B584B000AF786002F084FD47
:100580007B68002B02D1394B1B6800E07B68FB6065
:10059000FB680433184602F009FC0346002B15D112
:1005A000FB68DA6A324913469B0013449B000B44F4
:1005B0001B68002B0AD1FB68DB6A012202FA03F3F5
:1005C000DA432C4B1B6813402A4A1360FB689B6A72
:1005D000002B04D0FB681833184602F0E7FB264BCB
:1005E0001B680133244A1360204B1B68FA689A4247
:1005F0000BD1FB6804331946204802F07AFB204BEC
:100600001B6801331E4A136009E01E4B1B68013B47
:100610001C4A1360F86801F099FA01F0A7FA02F099
:1006200063FD194B1B68002B1BD0104B1B68FA682D
:100630009A4216D1154B1B68002B0AD04FF00503C8
:1006400083F31188BFF36F8FBFF34F8FBB6000BF81
:10065000FEE70F4B4FF080521A60BFF34F8FBFF38E
:100660006F8F00BF1037BD4680BD00BF080000205F
:100670000C000020E8000020FC000020B400002056
:10068000C8000020E0000020EC000020080100204D
:1006900004ED00E080B58AB000AF786039600023D7
:1006A0007B627B68002B0AD14FF0050383F311882E
:1006B000BFF36F8FBFF34F8F7B6100BFFEE73B68D7
:1006C000002B0AD14FF0050383F31188BFF36F8F1E
:1006D000BFF34F8F3B6100BFFEE72A4B1B68002B27
:1006E0000AD04FF0050383F31188BFF36F8FBFF378
:1006F0004F8FFB6000BFFEE700F0F2FB224B1B6850
:100700003B627B681B683A681344FB617B681B682B
:100710003A6A9A420BD27B681B68FA699A4211D2F4
:10072000FA693B6A9A420DD901237B620AE07B6831
:100730001B68FA699A4203D3FA693B6A9A4201D963
:1007400001237B627B68FA691A607B6A002B06D002
:10075000FA693B6AD31A0021184601F0BBFF00F08A
:10076000CDFBB861BB69002B07D1084B4FF080521D
:100770001A60BFF34F8FBFF36F8F7B6A184628371D
:10078000BD4680BD08010020E400002004ED00E02B
:1007900080B584B000AF78600023FB607B68002BDD
:1007A00017D0134B1B68002B0AD04FF0050383F3BF
:1007B0001188BFF36F8FBFF34F8FBB6000BFFEE7A1
:1007C00000F08EFB0021786801F084FF00F096FBBA
:1007D000F860FB68002B07D1064B4FF080521A607F
:1007E000BFF34F8FBFF36F8F00BF1037BD4680BD83
:1007F0000801002004ED00E080B58AB000AF786009
:100800007B68FB61FB69002B0AD14FF0050383F382
:100810001188BFF36F8FBFF34F8FFB6000BFFEE700
:100820002D4B1B68FA699A4203D1002387F82730C1
:100830004BE002F029FCFB695B69BB61274B1B683D
:100840007B61274B1B683B6102F04EFCBA697B69F8
:100850009A4203D0BA693B699A4203D1022387F8CE
:10086000273032E0BB691F4A934220D1FB699B6A63
:10087000002B18D1032387F8273000233B620EE0BA
:10088000FA693B6A134454331B78DBB2012B03D162
:10089000022387F8273018E03B6A01333B623B6A4A
:1008A000002BEDDD11E0022387F827300DE0BB6956
:1008B0000D4A934202D0BB69002B03D1042387F871
:1008C000273002E0012387F8273097F827301846B1
:1008D0002837BD4680BD00BF0800002098000020DA
:1008E0009C000020CC000020B400002080B584B023
:1008F00000AF786002F0C8FB7B68002B02D1074B89
:100900001B6800E07B68FB60FB68DB6ABB6002F091
:10091000EBFBBB6818461037BD4680BD08000020C1
:1009200080B588B000AF786002F08FFCEFF31182E1
:100930004FF0050383F31188BFF36F8FBFF34F8F21
:100940003A61FB603B69FB617B68002B02D1094B7C
:100950001B6800E07B68BB61BB69DB6A7B61FB698C
:10096000BB60BB6883F3118800BF7B6918462037E2
:10097000BD4680BD0800002080B588B000AF78601B
:1009800039600023FB613B68042B0AD94FF0050353
:1009900083F31188BFF36F8FBFF34F8FFB6000BFEE
:1009A000FEE73B68042B01D904233B6002F06CFB9B
:1009B0007B68002B02D1414B1B6800E07B68BB6168
:1009C000BB699B6C7B617A693B689A426FD03A68DD
:1009D0007B699A420DD9394B1B68BA699A420FD08C
:1009E000364B1B68DB6A3A689A4209D30123FB61E4
:1009F00006E0324B1B68BA699A4201D10123FB61C0
:100A0000BB69DB6A3B61BB699A6CBB69DB6A9A4272
:100A100002D1BB693A68DA62BB693A689A64BB6919
:100A20009B69002B04DB3B68C3F10502BB699A613B
:100A3000BB6959693A6913469B0013449B00204ADD
:100A40001344994228D1BB690433184602F0AEF929
:100A50000346002B09D101223B6902FA03F3DA4372
:100A6000184B1B681340174A1360BB69DB6A0122ED
:100A70009A40144B1B681343124A1360BB69DA6A2D
:100A800013469B0013449B000D4A1A44BB69043370
:100A90001946104602F02DF9FB69002B07D00A4BCE
:100AA0004FF080521A60BFF34F8FBFF36F8F02F089
:100AB0001BFB00BF2037BD4680BD00BF08000020E3
:100AC0000C000020E800002004ED00E080B586B0B6
:100AD00000AF786002F0D8FA7B68002B02D1434B5C
:100AE0001B6800E07B683B613B690433184602F0F9
:100AF0005DF90346002B15D13B69DA6A3C49134680
:100B00009B0013449B000B441B68002B0AD13B69DC
:100B1000DB6A012202FA03F3DA43364B1B68134007
:100B2000344A13603B699B6A002B04D03B6918333D
:100B3000184602F03BF93B69043319462E4802F08F
:100B4000D8F800237B6110E03A697B691344543381
:100B50001B78DBB2012B05D13A697B69134454330E
:100B600000221A707B6901337B617B69002BEBDD0E
:100B700002F0BAFA214B1B68002B05D002F084FA70
:100B800000F0F4FF02F0B0FA184B1B683A699A4281
:100B900027D11A4B1B68002B17D0194B1B68002B51
:100BA0000AD04FF0050383F31188BFF36F8FBFF3B3
:100BB0004F8FFB6000BFFEE7124B4FF080521A6070
:100BC000BFF34F8FBFF36F8F0BE00B4B1A680E4BC9
:100BD0001B689A4203D1054B00221A6001E000F025
:100BE00005FC00BF1837BD4680BD00BF08000020CF
:100BF0000C000020E8000020CC000020EC000020C9
:100C00000801002004ED00E0E000002080B487B07F
:100C100000AF786000237B617B683B617B68002BC1
:100C20000AD14FF0050383F31188BFF36F8FBFF331
:100C30004F8FFB6000BFFEE73B695B690A4A934246
:100C40000AD13B699B6A094A934205D03B699B6A7A
:100C5000002B01D101237B617B6918461C37BD46FF
:100C60005DF8047B704700BFCC000020A00000208E
:100C700080B584B000AF78607B68FB607B68002B38
:100C80000AD14FF0050383F31188BFF36F8FBFF3D1
:100C90004F8FBB6000BFFEE7204B1B68FA689A428B
:100CA00037D0FB68002B34D002F0EEF9F868FFF77C
:100CB000ADFF0346002B2AD0FB680433184602F030
:100CC00075F8FB68DB6A01229A40154B1B681343D9
:100CD000134A1360FB68DA6A13469B0013449B00B7
:100CE000104A1A44FB6804331946104602F001F812
:100CF000FB68DA6A094B1B68DB6A9A4207D30A4B26
:100D00004FF080521A60BFF34F8FBFF36F8F02F026
:100D1000EBF900BF1037BD4680BD00BF08000020C2
:100D2000E80000200C00002004ED00E080B58AB04F
:100D300000AF786000237B627B683B627B68002B9E
:100D40000AD14FF0050383F31188BFF36F8FBFF310
:100D50004F8FBB6100BFFEE702F077FAEFF311821D
:100D60004FF0050383F31188BFF36F8FBFF34F8FED
:100D70007A613B617B69FB61386AFFF747FF034695
:100D8000002B32D01E4B1B68002B28D13B6ADA6A3D
:100D90001C4B1B68DB6A9A4204D301237B621A4B0B
:100DA00001221A603B6A0433184601F0FFFF3B6AD8
:100DB000DB6A01229A40154B1B681343134A1360E8
:100DC0003B6ADA6A13469B0013449B00104A1A449C
:100DD0003B6A04331946104601F08BFF05E03B6A7D
:100DE000183319460B4801F084FFFB69FB60FB6870
:100DF00083F3118800BF7B6A18462837BD4680BD43
:100E00000801002008000020F4000020E800002075
:100E10000C000020A000002080B586B002AF1D4B62
:100E2000019300230093002382221B491B48FFF7F4
:100E30005BFAF860FB68012B16D14FF0050383F3D2
:100E40001188BFF36F8FBFF34F8FBB6000BF144B90
:100E50004FF0FF321A60134B01221A60124B00222E
:100E60001A6002F054F80EE0FB68B3F1FF3F0AD1BC
:100E70004FF0050383F31188BFF36F8FBFF34F8FDC
:100E80007B6000BFFEE7094B1B6800BF1037BD4603
:100E900080BD00BF04010020943300009B180000B7
:100EA00000010020EC000020E4000020903300004E
:100EB00080B582B000AF4FF0050383F31188BFF314
:100EC0006F8FBFF34F8F7B6000BF044B00221A600F
:100ED00002F0BEF800BF0837BD4680BDEC00002020
:100EE00080B400AF044B1B680133034A136000BF9A
:100EF000BD465DF8047B70470801002080B584B0D2
:100F000000AF0023FB600023BB60414B1B68002B3C
:100F10000AD14FF0050383F31188BFF36F8FBFF33E
:100F20004F8F3B6000BFFEE702F0AEF8384B1B6806
:100F3000013B374A1360364B1B68002B61D1354BA0
:100F40001B68002B5DD02EE0334BDB68DB68FB6059
:100F5000FB681833184601F029FFFB680433184674
:100F600001F024FFFB68DB6A01229A402B4B1B68CF
:100F700013432A4A1360FB68DA6A13469B00134442
:100F80009B00274A1A44FB6804331946104601F0B7
:100F9000B0FEFB68DA6A234B1B68DB6A9A4202D315
:100FA000214B01221A601C4B1B68002BCCD1FB6823
:100FB000002B01D000F0DAFD1C4B1B687B607B68C6
:100FC000002B10D000F05AF90346002B02D0164B2C
:100FD00001221A607B68013B7B607B68002BF1D1AA
:100FE000124B00221A60104B1B68002B09D0012302
:100FF000BB600F4B4FF080521A60BFF34F8FBFF3AF
:101000006F8F02F071F8BB6818461037BD4680BD7F
:1010100008010020E0000020A0000020E8000020DF
:101020000C00002008000020F4000020F000002048
:1010300004ED00E080B483B000AF054B1B687B601B
:101040007B6818460C37BD465DF8047B704700BFCF
:10105000E400002080B582B000AF02F0F6F8002373
:101060007B60044B1B683B603B6818460837BD46F5
:1010700080BD00BFE400002080B400AF034B1B68BC
:101080001846BD465DF8047B704700BFE0000020B5
:1010900080B485B000AF78607B68002B02D10D4B27
:1010A0001B6800E07B68FB60FB68002B0AD14FF0F7
:1010B000050383F31188BFF36F8FBFF34F8FBB60BE
:1010C00000BFFEE7FB68343318461437BD465DF8B1
:1010D000047B70470800002080B586B000AFF86040
:1010E000B9607A6000237B6105233B61FFF7F8FE5E
:1010F0003A4B1B68BA689A4268D33B69013B3B6133
:101100007A691346DB0013449B001A46FB68981863
:101110003A6913469B0013449B00314A1344012251
:10112000194600F0A5FC02467B6913447B613B69CC
:10113000002BE2D17A691346DB0013449B001A4668
:10114000FB681344274A11680222184600F090FCFD
:1011500002467B6913447B617A691346DB001344C2
:101160009B001A46FB6813441F4A11680222184666
:1011700000F07EFC02467B6913447B617A6913466A
:10118000DB0013449B001A46FB68134404221749F2
:10119000184600F06DFC02467B6913447B617A6956
:1011A0001346DB0013449B001A46FB6813440322DA
:1011B0000F49184600F05CFC02467B6913447B61D2
:1011C0007B68002B02D07B6800221A60FFF796FE36
:1011D0007B6918461837BD4680BD00BFE00000207F
:1011E0000C000020980000209C000020B40000208B
:1011F000CC00002080B483B000AF0B4B1B68002BE9
:101200000AD14FF0050383F31188BFF36F8FBFF34B
:101210004F8F7B6000BFFEE7034B1B6818460C37FF
:10122000BD465DF8047B70470401002080B584B0A2
:1012300000AF78600F4B1B68002B0AD04FF00503FE
:1012400083F31188BFF36F8FBFF34F8FBB6000BF75
:10125000FEE7FFF745FE084B1A687B681344064A11
:101260001360FFF74BFEF860FB6818461037BD4669
:1012700080BD00BF08010020F000002080B586B0CE
:1012800000AF00237B614E4B1B68002B40F08E802B
:101290004C4B1B6801333B614A4A3B6913603B6915
:1012A000002B20D1484B1B681B68002B0AD04FF045
:1012B000050383F31188BFF36F8FBFF34F8F3B603C
:1012C00000BFFEE7404B1B68FB60404B1B683E4A7B
:1012D00013603E4AFB6813603D4B1B6801333C4A78
:1012E000136000F043FC3B4B1B683A699A4248D3B9
:1012F000354B1B681B68002B04D1364B4FF0FF3277
:101300001A603EE0304B1B68DB68DB68BB60BB6883
:101310005B687B603A697B689A4203D22D4A7B689E
:1013200013602EE0BB680433184601F03FFDBB6834
:101330009B6A002B04D0BB681833184601F036FDB9
:10134000BB68DB6A01229A40234B1B681343224A85
:101350001360BB68DA6A13469B0013449B001F4A64
:101360001A44BB6804331946104601F0C2FCBB683E
:10137000DA6A1B4B1B68DB6A9A42B9D301237B6193
:10138000B6E7174B1B68DA6A144913469B001344EF
:101390009B000B441B68012B01D901237B61114B7E
:1013A0001B68002B07D001237B6104E00E4B1B68F8
:1013B00001330D4A13607B6918461837BD4680BD5E
:1013C00008010020E4000020980000209C0000207C
:1013D000F800002000010020E80000200C000020A0
:1013E00008000020F4000020F000002080B487B046
:1013F00000AF274B1B68002B03D0264B01221A603D
:101400003FE0244B00221A60234B1B68FB60FB6803
:10141000B3FA83F3FB72FB7AC3F11F037B611F49AD
:101420007A6913469B0013449B000B441B68002BF6
:101430000AD14FF0050383F31188BFF36F8FBFF319
:101440004F8F7B6000BFFEE77A6913469B00134411
:101450009B00124A13443B613B695B685A683B69D5
:101460005A603B695A683B6908339A4204D13B6928
:101470005B685A683B695A603B695B68DB68084A8D
:10148000136000BF1C37BD465DF8047B704700BF8A
:1014900008010020F4000020E80000200C000020DB
:1014A0000800002080B584B000AF786039607B68A8
:1014B000002B0AD14FF0050383F31188BFF36F8F20
:1014C000BFF34F8FFB6000BFFEE7074B1B6818336D
:1014D0001946786801F031FC0121386801F0FAF80A
:1014E00000BF1037BD4680BD0800002080B586B023
:1014F00000AFF860B9607A60FB68002B0AD14FF04A
:10150000050383F31188BFF36F8FBFF34F8F7B61A8
:1015100000BFFEE7114B1B68002B0AD14FF00503FB
:1015200083F31188BFF36F8FBFF34F8F3B6100BF11
:10153000FEE70B4B1B68BA6842F000429A61084B09
:101540001B6818331946F86801F0D3FB012178684D
:1015500001F0C0F800BF1837BD4680BD080100206B
:101560000800002080B586B000AF78607B68DB683B
:10157000DB683B613B69002B0AD14FF0050383F325
:101580001188BFF36F8FBFF34F8FFB6000BFFEE783
:101590003B691833184601F009FC1D4B1B68002BF2
:1015A0001CD13B690433184601F000FC3B69DB6A3F
:1015B00001229A40174B1B681343164A13603B697C
:1015C000DA6A13469B0013449B00134A1A443B6992
:1015D00004331946104601F08CFB05E03B691833D3
:1015E00019460E4801F085FB3B69DA6A0C4B1B6813
:1015F000DB6A9A4205D901237B610A4B01221A60FA
:1016000001E000237B617B6918461837BD4680BD29
:1016100008010020E80000200C000020A0000020AD
:1016200008000020F400002080B586B000AF78608C
:101630003960294B1B68002B0AD14FF0050383F357
:101640001188BFF36F8FBFF34F8F3B6100BFFEE781
:101650003B6843F000427B681A607B68DB687B6113
:101660007B69002B0AD14FF0050383F31188BFF388
:101670006F8FBFF34F8FFB6000BFFEE7786801F00C
:1016800095FB7B690433184601F090FB7B69DB6AAC
:1016900001229A40114B1B681343104A13607B6967
:1016A000DA6A13469B0013449B000D4A1A447B6977
:1016B00004331946104601F01CFB7B69DA6A094BBA
:1016C0001B68DB6A9A4202D9074B01221A6000BFED
:1016D0001837BD4680BD00BF08010020E80000208B
:1016E0000C00002008000020F400002080B584B029
:1016F00000AF78607B68002B0AD14FF0050383F3BD
:101700001188BFF36F8FBFF34F8FFB6000BFFEE701
:1017100001F0BAFC064B1A687B681A60054B1A6820
:101720007B685A6001F0E0FC00BF1037BD4680BD09
:10173000F8000020E400002080B483B000AF78609F
:10174000064B1A687B681A60054B1A687B685A60FA
:1017500000BF0C37BD465DF8047B7047F8000020E1
:10176000E400002080B588B000AF786039607B6805
:10177000002B0AD14FF0050383F31188BFF36F8F5D
:10178000BFF34F8F3B6100BFFEE73B68002B0AD1E0
:101790004FF0050383F31188BFF36F8FBFF34F8FB3
:1017A000FB6000BFFEE701F06FFC1F4B1B68BB61D5
:1017B0007B685B68BA69D31A7B613B681B68B3F1CD
:1017C000FF3F02D10023FB6126E07B681A68174BBC
:1017D0001B689A420AD07B685B68BA699A4205D353
:1017E0000123FB613B6800221A6015E03B681B681F
:1017F0007A699A420BD23B681A687B69D21A3B68B5
:101800001A607868FFF798FF0023FB6104E03B68EB
:1018100000221A600123FB6101F066FCFB69184697
:101820002037BD4680BD00BFE4000020F800002046
:1018300080B400AF034B01221A6000BFBD465DF8C3
:10184000047B7047F400002080B485B000AF78605E
:101850007B68002B05D07B68BB60BB685B6CFB6062
:1018600001E00023FB60FB6818461437BD465DF8B5
:10187000047B704780B485B000AF786039607B68C6
:10188000002B04D07B68FB60FB683A685A6400BF99
:101890001437BD465DF8047B704780B582B000AF59
:1018A000786000F051F8064B1B68012BF9D9054B05
:1018B0004FF080521A60BFF34F8FBFF36F8FF0E786
:1018C0000C00002004ED00E080B582B000AF0023E2
:1018D0007B600CE07A6813469B0013449B00124A1D
:1018E0001344184601F0D8F97B6801337B607B68AC
:1018F000042BEFD90D4801F0CFF90D4801F0CCF9D8
:101900000C4801F0C9F90C4801F0C6F90B4801F088
:10191000C3F90B4B054A1A600A4B054A1A6000BF0F
:101920000837BD4680BD00BF0C00002070000020BD
:1019300084000020A0000020B4000020CC00002083
:10194000980000209C00002080B582B000AF19E014
:1019500001F09AFB104BDB68DB687B607B6804332B
:10196000184601F023FA0D4B1B68013B0B4A13602C
:101970000B4B1B68013B0A4A136001F0B5FB78680A
:1019800000F0E4F8064B1B68002BE1D100BF00BF5C
:101990000837BD4680BD00BFB4000020E000002035
:1019A000C800002080B586B000AFF860B9607A60EA
:1019B000FB70FB68002B02D12C4B1B6800E0FB681E
:1019C0007B61BB687A691A607B6903F13402BB688A
:1019D0005A607B69DA6ABB681A617B691A6BBB68FB
:1019E000DA617B691A6CBB689A607B699A6CBB6828
:1019F0005A61BB6800229A61FB78052B1AD01B4BF9
:101A00001B687A699A4203D1BB6800221A7318E0F6
:101A1000BB68FA781A73FB78032B12D1FFF760FAD0
:101A20007B699B6A002B02D0BB6802221A73FFF706
:101A300065FA06E07869FEF7DFFE03461A46BB68E2
:101A40001A737B68002B09D07B691B6B184600F06A
:101A500061F803461A46BB681A8402E0BB6800229C
:101A60001A8400BF1837BD4680BD00BF08000020A3
:101A700080B58AB000AFF860B9601346FB710023EF
:101A80007B62BB681B68002B3FD0BB683B623B6A34
:101A90005B685A683B6A5A603B6A5A683B6A08331B
:101AA0009A4204D13B6A5B685A683B6A5A603B6A57
:101AB0005B68DB68FB61BB68BB61BB695B685A68DC
:101AC000BB695A60BB695A68BB6908339A4204D142
:101AD000BB695B685A68BB695A60BB695B68DB6855
:101AE0007B617A6A1346DB0013449B001A46FB684D
:101AF0009918FB7901227869FFF754FF7B6A01335B
:101B00007B627A69FB699A42D5D17B6A184628378D
:101B1000BD4680BD80B485B000AF78600023FB6017
:101B200005E07B6801337B60FB680133FB607B6809
:101B30001B78A52BF5D0FB689B08FB60FB689BB26C
:101B400018461437BD465DF8047B704780B582B0F7
:101B500000AF78607B681B6B184600F001FF786867
:101B600000F0FEFE00BF0837BD4680BD80B400AF68
:101B70000A4B1B681B68002B04D1094B4FF0FF3246
:101B80001A6005E0054B1B68DB681B68044A13609C
:101B900000BFBD465DF8047B704700BF9800002081
:101BA0000001002080B483B000AF054B1B687B6050
:101BB0007B6818460C37BD465DF8047B704700BF54
:101BC0000800002080B584B000AF78607B68BB60FF
:101BD0000023FB607B68002B5ED0BB68DA6A314B68
:101BE0001B68DB6A9A424ED2BB689B69002B06DBFE
:101BF0002C4B1B68DB6AC3F10502BB689A61BB68AA
:101C00005969BB68DA6A13469B0013449B00264A55
:101C1000134499422FD1BB680433184601F0C6F82B
:101C20000346002B0AD1BB68DB6A012202FA03F3E8
:101C3000DA431E4B1B6813401C4A1360194B1B6888
:101C4000DA6ABB68DA62BB68DB6A01229A40174B2A
:101C50001B681343154A1360BB68DA6A13469B007E
:101C600013449B00104A1A44BB68043319461046BB
:101C700001F03FF804E00B4B1B68DA6ABB68DA62DC
:101C80000123FB6008E0BB689A6C064B1B68DB6AAB
:101C90009A4201D20123FB60FB6818461037BD460B
:101CA00080BD00BF080000200C000020E8000020DC
:101CB00080B586B000AF78607B683B6100237B61B4
:101CC0007B68002B63D0344B1B683A699A420AD078
:101CD0004FF0050383F31188BFF36F8FBFF34F8F6E
:101CE000FB6000BFFEE73B69DB6C002B0AD14FF0C5
:101CF000050383F31188BFF36F8FBFF34F8FBB6072
:101D000000BFFEE73B69DB6C5A1E3B69DA643B6946
:101D1000DA6A3B699B6C9A4239D03B69DB6C002BD9
:101D200035D13B690433184601F040F80346002BD7
:101D30000AD13B69DB6A012202FA03F3DA43174B4B
:101D40001B681340154A13603B699A6C3B69DA6261
:101D50003B69DB6AC3F105023B699A613B69DB6A57
:101D600001229A400D4B1B6813430C4A13603B69D8
:101D7000DA6A13469B0013449B00094A1A443B69E4
:101D800004331946104600F0B4FF01237B617B69E0
:101D900018461837BD4680BD08000020E800002026
:101DA0000C00002080B588B000AF786039607B6897
:101DB000BB6101237B617B68002B77D0BB69DB6C47
:101DC000002B0AD14FF0050383F31188BFF36F8F07
:101DD000BFF34F8FFB6000BFFEE7BB699B6C3A68A7
:101DE0009A4202D93B68FB6102E0BB699B6CFB61D4
:101DF000BB69DB6AFA699A4258D0BB69DB6C7A69C5
:101E00009A4253D12B4B1B68BA699A420AD14FF0C0
:101E1000050383F31188BFF36F8FBFF34F8FBB6050
:101E200000BFFEE7BB69DB6A3B61BB69FA69DA6246
:101E3000BB699B69002B04DBFB69C3F10502BB692D
:101E40009A61BB6959693A6913469B0013449B0028
:101E5000194A1344994229D1BB690433184600F04A
:101E6000A5FF0346002B0AD1BB69DB6A012202FAF7
:101E700003F3DA43114B1B681340104A1360BB692C
:101E8000DB6A01229A400D4B1B6813430B4A136017
:101E9000BB69DA6A13469B0013449B00064A1A4446
:101EA000BB6904331946104600F023FF00BF2037FA
:101EB000BD4680BD080000200C000020E800002086
:101EC00080B483B000AF094B1B689B697B60074BF4
:101ED0001B68DA6A054B1B68C2F105029A617B68D0
:101EE00018460C37BD465DF8047B7047080000209B
:101EF00080B400AF074B1B68002B04D0054B1B6858
:101F0000DA6C0132DA64034B1B681846BD465DF893
:101F1000047B70470800002080B586B000AFF860F1
:101F2000B9607A60FB68002B0AD04FF0050383F399
:101F30001188BFF36F8FBFF34F8F3B6100BFFEE788
:101F400001F0A2F8264B1B68FA68143253F82230CD
:101F5000002B15D1224B1A68FB681344543301221D
:101F60001A707B68002B0BD00121786800F0B2FB5F
:101F70001C4B4FF080521A60BFF34F8FBFF36F8F2F
:101F800001F0B2F801F080F8154B1B68FA681432C2
:101F900053F822307B617B69002B12D0BB68002B89
:101FA00007D00F4B1B68FA681432002143F8221047
:101FB00007E00B4B1B687A69511EFA68143243F82C
:101FC0002210074B1A68FB681344543300221A701E
:101FD00001F08AF87B6918461837BD4680BD00BFFE
:101FE0000800002004ED00E080B586B000AFF86086
:101FF000B9607A603B60FB68002B0AD04FF00503A4
:1020000083F31188BFF36F8FBFF34F8F3B6100BF26
:10201000FEE701F039F8324B1A68FB681344543379
:102020001B78DBB2022B22D02D4B1B68FA681432CE
:1020300053F82210BA68D2431140FA68143243F8B8
:102040002210274B1A68FB681344543301221A707C
:102050003B6A002B0BD00121386A00F03BFB214B7F
:102060004FF080521A60BFF34F8FBFF36F8F01F0B4
:102070003BF801F009F83B68002B07D0184B1B68B0
:10208000FA68143253F822203B681A60144B1A681D
:10209000FB68134454331B78DBB2022B02D00023BD
:1020A0007B610EE00E4B1B68FA68143253F8221065
:1020B0007A68D2431140FA68143243F8221001239F
:1020C0007B61074B1A68FB681344543300221A7073
:1020D00001F00AF87B6918461837BD4680BD00BF7D
:1020E0000800002004ED00E080B58CB000AFF8607F
:1020F000B9607A60FB700123FB62BB68002B0AD0D9
:102100004FF0050383F31188BFF36F8FBFF34F8F39
:102110003B6200BFFEE7FB68002B0AD14FF00503CE
:1021200083F31188BFF36F8FBFF34F8FFB6100BF45
:10213000FEE7FB68BB6200F0A7FFBB6B002B06D07D
:10214000BB6ABA68143253F82220BB6B1A60BA6AB1
:10215000BB68134454331B7887F82730BA6ABB68CE
:102160001344543302221A70FB78042B3BD801A28B
:1021700052F823F00522000089210000A52100006B
:10218000BD210000CB210000BB6ABA68143253F8AD
:1021900022207B6842EA0301BB6ABA68143243F822
:1021A000221032E0BB6ABA68143253F82230591C4C
:1021B000BB6ABA68143243F8221026E0BB6ABA68D8
:1021C0001432796843F822101FE097F82730022B69
:1021D00006D0BB6ABA681432796843F8221014E05A
:1021E0000023FB6211E02B4B1B68002B0CD04FF03F
:1021F000050383F31188BFF36F8FBFF34F8FBB616C
:1022000000BFFEE700BF00E000BF97F82730012BBA
:1022100039D1BB6A0433184600F0C8FDBB6ADB6ADB
:1022200001229A401C4B1B6813431B4A1360BB6A74
:10223000DA6A13469B0013449B00184A1A44BB6A8F
:1022400004331946104600F054FDBB6A9B6A002B0C
:102250000AD04FF0050383F31188BFF36F8FBFF3EC
:102260004F8F7B6100BFFEE7BB6ADA6A0C4B1B68CD
:10227000DB6A9A4207D90B4B4FF080521A60BFF3CA
:102280004F8FBFF36F8F00F02FFFFB6A1846303778
:10229000BD4680BDE4000020E80000200C000020C6
:1022A0000800002004ED00E080B590B000AFF860B9
:1022B000B9607A60FB700123FB63FB68002B0AD1D5
:1022C0004FF0050383F31188BFF36F8FBFF34F8F78
:1022D000FB6200BFFEE7BB68002B0AD04FF005038E
:1022E00083F31188BFF36F8FBFF34F8FBB6200BFC3
:1022F000FEE700F0AAFFFB68BB63EFF311824FF02B
:10230000050383F31188BFF36F8FBFF34F8F7A629A
:102310003B627B6A7B63BB6C002B06D0BB6BBA68ED
:10232000143253F82220BB6C1A60BA6BBB6813449A
:1023300054331B7887F83330BA6BBB68134454337B
:1023400002221A70FB78042B3BD801A252F823F02A
:10235000E123000065230000812300009923000091
:10236000A7230000BB6BBA68143253F822207B68A5
:1023700042EA0301BB6BBA68143243F8221032E020
:10238000BB6BBA68143253F82230591CBB6BBA6865
:10239000143243F8221026E0BB6BBA681432796815
:1023A00043F822101FE097F83330022B06D0BB6BA6
:1023B000BA681432796843F8221014E00023FB63F2
:1023C00011E0334B1B68002B0CD04FF0050383F357
:1023D0001188BFF36F8FBFF34F8FFB6100BFFEE724
:1023E00000BF00E000BF97F83330012B45D1BB6B35
:1023F0009B6A002B0AD04FF0050383F31188BFF3CB
:102400006F8FBFF34F8FBB6100BFFEE7214B1B688F
:10241000002B1CD1BB6B0433184600F0C7FCBB6B10
:10242000DB6A01229A401C4B1B6813431A4A136053
:10243000BB6BDA6A13469B0013449B00174A1A448D
:10244000BB6B04331946104600F053FC05E0BB6B30
:1024500018331946124800F04CFCBB6BDA6A114B7A
:102460001B68DB6A9A4208D9FB6C002B02D0FB6C1C
:1024700001221A600C4B01221A607B6B7B617B6925
:1024800083F3118800BFFB6B18464037BD4680BD03
:10249000E400002008010020E80000200C000020DB
:1024A000A000002008000020F400002080B58EB0BD
:1024B00000AFF860B9607A60FB68002B0AD14FF07A
:1024C000050383F31188BFF36F8FBFF34F8FBB6298
:1024D00000BFFEE7BB68002B0AD04FF0050383F373
:1024E0001188BFF36F8FBFF34F8F7B6200BFFEE792
:1024F00000F0ABFEFB687B63EFF311824FF0050346
:1025000083F31188BFF36F8FBFF34F8F3A62FB6184
:102510003B6A3B637A6BBB68134454331B7887F880
:102520002F307A6BBB681344543302221A707B6BD2
:10253000BA68143253F82230591C7B6BBA681432D3
:1025400043F8221097F82F30012B45D17B6B9B6A03
:10255000002B0AD04FF0050383F31188BFF36F8F70
:10256000BFF34F8FBB6100BFFEE7204B1B68002B02
:102570001CD17B6B0433184600F018FC7B6BDB6AC4
:1025800001229A401A4B1B681343194A13607B6B54
:10259000DA6A13469B0013449B00164A1A447B6B6D
:1025A00004331946104600F0A4FB05E07B6B18339A
:1025B0001946114800F09DFB7B6BDA6A0F4B1B68D4
:1025C000DB6A9A4208D97B68002B02D07B68012223
:1025D0001A600B4B01221A603B6B7B617B6983F3B2
:1025E000118800BF00BF3837BD4680BD08010020FC
:1025F000E80000200C000020A000002008000020BF
:10260000F400002080B586B000AF786039603B6888
:10261000002B0AD04FF0050383F31188BFF36F8FAF
:10262000BFF34F8FFB6000BFFEE77B68002B02D13A
:10263000104B1B6800E07B683B6100F025FD3A69A8
:102640003B68134454331B78DBB2022B08D13A6940
:102650003B681344543300221A7001237B6101E06C
:1026600000237B6100F040FD7B6918461837BD46AA
:1026700080BD00BF0800002080B586B000AFF860C4
:10268000B9607A60FB68002B02D1114B1B6800E037
:10269000FB687B6100F0F8FC7B69BA68143253F880
:1026A00022303B617B69BA68143253F822207B6880
:1026B000DB4302EA03017B69BA68143243F8221053
:1026C00000F012FD3B6918461837BD4680BD00BFBB
:1026D0000800002080B584B000AF78603960294BD5
:1026E0001B68FB60284B1B680433184600F05EFB38
:1026F0000346002B0BD1244B1B68DB6A012202FA34
:1027000003F3DA43214B1B681340204A13607B68B4
:10271000B3F1FF3F0AD13B68002B07D01A4B1B686F
:10272000043319461A4800F0E4FA26E0FA687B6898
:102730001344BB60144B1B68BA685A60BA68FB68E4
:102740009A4209D2134B1A680F4B1B68043319467F
:10275000104600F0F2FA10E00F4B1A680A4B1B68A3
:1027600004331946104600F0E8FA0C4B1B68BA68AF
:102770009A4202D2094ABB68136000BF1037BD46B7
:1027800080BD00BFE400002008000020E800002019
:10279000CC0000209C0000209800002000010020B8
:1027A00080B58AB000AF78600023FB61FEF798FB2C
:1027B000654B1B68002B01D100F053F9634B1A687D
:1027C0007B681340002B40F0A7807B68002B2DD046
:1027D00008227B6813447A689A4227D208227B68D1
:1027E00013447B607B6803F00703002B21D07B68D8
:1027F00023F0070308337A689A4214D27B6823F0E7
:10280000070308337B607B6803F00703002B10D0BD
:102810004FF0050383F31188BFF36F8FBFF34F8F22
:102820007B6100BFFEE700237B6002E000237B604A
:1028300000E000BF7B68002B6ED0454B1B687A68B8
:102840009A4269D8434B3B62424B1B687B6204E06F
:102850007B6A3B627B6A1B687B627B6A5B687A6827
:102860009A4203D97B6A1B68002BF1D1364B1B6857
:102870007A6A9A4250D03B6A1B6808221344FB6173
:102880007B6A1A683B6A1A607B6A5A687B68D21A4C
:1028900008235B009A421FD97A6A7B681344BB61A4
:1028A000BB6903F00703002B0AD04FF0050383F345
:1028B0001188BFF36F8FBFF34F8F3B6100BFFEE7FF
:1028C0007B6A5A687B68D21ABB695A607B6A7A68ED
:1028D0005A60B86900F028F91D4B1A687B6A5B687A
:1028E000D31A1B4A13601A4B1A681B4B1B689A4277
:1028F00003D2174B1B68184A13607B6A5A68134B44
:102900001B681A437B6A5A607B6A00221A60134B69
:102910001B680133114A1360FEF7F0FAFB6903F0FC
:102920000703002B0AD04FF0050383F31188BFF390
:102930006F8FBFF34F8FFB6000BFFEE7FB69184648
:102940002837BD4680BD00BF14090020280900209B
:10295000180900200C0900201C0900202009002073
:1029600080B586B000AF78607B687B617B68002BA8
:102970004DD008235B427A6913447B617B693B61DC
:102980003B695A68244B1B681340002B0AD14FF057
:10299000050383F31188BFF36F8FBFF34F8FFB6085
:1029A00000BFFEE73B691B68002B0AD04FF0050310
:1029B00083F31188BFF36F8FBFF34F8FBB6000BFEE
:1029C000FEE73B695A68144B1B681340002B1ED06E
:1029D0003B691B68002B1AD13B695A680E4B1B6878
:1029E000DB431A403B695A60FEF77AFA3B695A6842
:1029F0000A4B1B681344094A1360386900F094F8C5
:102A0000074B1B680133064A1360FEF777FA00BFD5
:102A10001837BD4680BD00BF2809002018090020D6
:102A20002409002080B400AF034B1B681846BD4644
:102A30005DF8047B704700BF1809002080B400AF28
:102A4000034B1B681846BD465DF8047B704700BF0A
:102A50001C09002080B400AF00BFBD465DF8047BB8
:102A6000704780B485B000AF4FF40063BB60284B63
:102A7000FB60FB6803F00703002B0CD0FB680733F7
:102A8000FB60FB6823F00703FB60BA68FB68D31A9E
:102A90001F4A1344BB60FB687B601E4A7B6813605F
:102AA0001C4B00225A607B68BA681344FB60082202
:102AB000FB689B1AFB60FB6823F00703FB60FB6865
:102AC000154A1360144B1B6800225A60124B1B6896
:102AD00000221A607B683B603B68FA68D21A3B6848
:102AE0005A600D4B1A683B681A603B685B680B4A7A
:102AF00013603B685B680A4A13600A4B4FF0004260
:102B00001A6000BF1437BD465DF8047B704700BFF4
:102B10000C0100200C090020140900201C090020D1
:102B2000180900202809002080B485B000AF786023
:102B3000284BFB6002E0FB681B68FB60FB681B68BE
:102B40007A689A42F7D8FB68BB60FB685B68BA6832
:102B500013447A689A4208D1FB685A687B685B68BC
:102B60001A44FB685A60FB687B607B68BB607B68CB
:102B70005B68BA681A44FB681B689A4218D1FB6804
:102B80001A68154B1B689A420DD07B685A68FB681F
:102B90001B685B681A447B685A60FB681B681A688C
:102BA0007B681A6008E00C4B1A687B681A6003E0C7
:102BB000FB681A687B681A60FA687B689A4202D0E0
:102BC000FB687A681A6000BF1437BD465DF8047B65
:102BD000704700BF0C0900201409002080B586B0A2
:102BE00000AF786000233B610023FB604FF0FF33B0
:102BF000BB60FEF775F9224B1B687B617B69002B7C
:102C00001AD03B6901333B617B695B68FA689A4281
:102C100002D27B695B68FB607B695B68BA689A4239
:102C200002D97B695B68BB607B691B687B61154B64
:102C30001B687A699A42E4D1FEF760F97B68FA680A
:102C40005A607B68BA689A607B683A69DA6000F01B
:102C50001BFA0D4B1A687B681A600C4B1A687B686C
:102C60005A610B4B1A687B689A610A4B1A687B6839
:102C70001A6100F039FA00BF1837BD4680BD00BFA9
:102C80000C09002014090020180900202009002048
:102C9000240900201C09002080B483B000AF7860B4
:102CA0007B6803F108027B685A607B684FF0FF3253
:102CB0009A607B6803F108027B68DA607B6803F145
:102CC00008027B681A617B6800221A6000BF0C371B
:102CD000BD465DF8047B704780B483B000AF786078
:102CE0007B6800221A6100BF0C37BD465DF8047B8B
:102CF000704780B485B000AF786039607B685B68EE
:102D0000FB603B68FA685A60FB689A683B689A60A7
:102D1000FB689B683A685A60FB683A689A603B684F
:102D20007A681A617B681B685A1C7B681A6000BF4E
:102D30001437BD465DF8047B704780B485B000AFA2
:102D4000786039603B681B68BB60BB68B3F1FF3FCC
:102D500003D17B681B69FB600CE07B680833FB6078
:102D600002E0FB685B68FB60FB685B681B68BA6835
:102D70009A42F6D2FB685A683B685A603B685B68C7
:102D80003A689A603B68FA689A60FB683A685A60E9
:102D90003B687A681A617B681B685A1C7B681A60FA
:102DA00000BF1437BD465DF8047B704780B485B022
:102DB00000AF78607B681B69FB607B685B687A6842
:102DC00092689A607B689B687A6852685A60FB6870
:102DD0005B687A689A4203D17B689A68FB685A609C
:102DE0007B6800221A61FB681B685A1EFB681A6028
:102DF000FB681B6818461437BD465DF8047B7047B6
:102E000080B485B000AFF860B9607A60FB68043BBD
:102E1000FB60FB684FF080721A60FB68043BFB604C
:102E2000BB6823F00102FB681A60FB68043BFB608F
:102E30000C4AFB681A60FB68143BFB607A68FB680D
:102E40001A60FB68043BFB60FB686FF002021A60CB
:102E5000FB68203BFB60FB6818461437BD465DF8F5
:102E6000047B7047692E000080B485B000AF00235A
:102E70007B60124B1B68B3F1FF3F0AD04FF0050394
:102E800083F31188BFF36F8FBFF34F8FFB6000BFD9
:102E9000FEE74FF0050383F31188BFF36F8FBFF395
:102EA0004F8FBB6000BF00BF7B68002BFCD000BF12
:102EB00000BF1437BD465DF8047B70470400002056
:102EC000074B19680868B0E8F04F80F30988BFF332
:102ED0006F8F4FF0000080F311887047AFF30080D0
:102EE0000800002000BF08480068006880F30888D8
:102EF0004FF0000080F3148862B661B6BFF34F8FC5
:102F0000BFF36F8F00DF00BF08ED00E000BF80B5AA
:102F100086B000AF454B1B68454A93420AD14FF03B
:102F2000050383F31188BFF36F8FBFF34F8F3B61AE
:102F300000BFFEE73D4B1B683E4A93420AD14FF06B
:102F4000050383F31188BFF36F8FBFF34F8FFB60CF
:102F500000BFFEE7384B7B617B691B78DBB27B608F
:102F60007B69FF221A707B691B78DBB2FB70FB78F0
:102F7000DBB203F00503DAB2304B1A70304B072294
:102F80001A6009E02E4B1B68013B2D4A1360FB7849
:102F9000DBB25B00DBB2FB70FB78DBB203F08003DB
:102FA000802BEFD0264B1B68C3F10703082B0AD0F8
:102FB0004FF0050383F31188BFF36F8FBFF34F8F7B
:102FC000BB6000BFFEE71E4B1B681B021C4A136060
:102FD0001B4B1B6803F4E063194A13607B68DAB289
:102FE0007B691A70174B1B68164A43F470231360F1
:102FF000144B1B68134A43F07063136000F0F6F83B
:10300000114B00221A6000F015F9104B1B680F4A93
:1030100043F040431360FFF766FFFEF7E7F9FFF761
:1030200023FF002318461837BD4680BD00ED00E0A1
:1030300071C20F4170C20F4100E400E02C09002072
:103040003009002020ED00E00400002034EF00E013
:1030500080B483B000AF0B4B1B68B3F57A7F0AD006
:103060004FF0050383F31188BFF36F8FBFF34F8FCA
:103070007B6000BFFEE700BF0C37BD465DF8047BF8
:10308000704700BF0400002080B483B000AF4FF051
:10309000050383F31188BFF36F8FBFF34F8F7B60FE
:1030A00000BF0F4B1B6801330D4A13600C4B1B68AC
:1030B000012B0FD10B4B1B68DBB2002B0AD04FF05A
:1030C000050383F31188BFF36F8FBFF34F8F3B600E
:1030D00000BFFEE700BF0C37BD465DF8047B7047BC
:1030E0000400002004ED00E080B483B000AF124B78
:1030F0001B68002B0AD14FF0050383F31188BFF33F
:103100006F8FBFF34F8F7B6000BFFEE70A4B1B68DA
:10311000013B094A1360084B1B68002B05D10023B3
:103120003B603B6883F3118800BF00BF0C37BD468E
:103130005DF8047B704700BF04000020EFF30980B6
:10314000BFF36F8F164B1A681EF0100F08BF20EDEB
:10315000108A20E9F04F10602DE909004FF00500BA
:1031600080F31188BFF34F8FBFF36F8FFEF73EF9E7
:103170004FF0000080F3118809BC19680868B0E8B6
:10318000F04F1EF0100F08BFB0EC108A80F30988D2
:10319000BFF36F8F704700BFAFF30080AFF30080C5
:1031A0000800002000BF80B582B000AF4FF00503DB
:1031B00083F31188BFF36F8FBFF34F8F7B6000BF26
:1031C000FEF75CF80346002B03D0074B4FF080520C
:1031D0001A6000233B603B6883F3118800BF00BF87
:1031E0000837BD4680BD00BF04ED00E080B400AFED
:1031F0000B4B00221A600B4B00221A600A4B1B6813
:103200000A4AA2FB03239B09094A013B1360044BB2
:1032100007221A6000BFBD465DF8047B704700BFFF
:1032200010E000E018E000E000000020D34D621044
:1032300014E000E0DFF80C00016841F47001016067
:103240007047000088ED00E000BF80B485B000AF9B
:10325000EFF30583FB60FB680F2B14D9164AFB685C
:1032600013441B78FB72154B1B78FA7A9A420AD2E8
:103270004FF0050383F31188BFF36F8FBFF34F8FB8
:103280007B6000BFFEE70E4B1B6803F4E0620D4B52
:103290001B689A420AD94FF0050383F31188BFF3E4
:1032A0006F8FBFF34F8F3B6000BFFEE700BF143747
:1032B000BD465DF8047B7047F0E300E02C09002078
:1032C0000CED00E03009002080B400AF144B1B6F00
:1032D000134A43F001031367114B1B6F104A43F469
:1032E000807313670E4B1B6F0D4A43F40043136743
:1032F0000C4BCA225A620B4B53225A62094B0A4AA0
:103300001A61084B094A1A60064B094A5A60054B74
:10331000FF225A6200BFBD465DF8047B704700BFC4
:103320000038024000280040FF007F0056341200A1
:103330000404240080B487B000AFF860B9607A60FC
:103340000F4BCA225A620E4B53225A620C4B1B6817
:103350007B617B691B0CDAB2FB681A707B691B0A04
:10336000DAB2BB681A707B69DAB27B681A70044BF8
:10337000FF225A6200BF1C37BD465DF8047B7047D0
:10338000002800404578616D706C655461736B0076
:103390000400000049444C45000000000800000003
:0433A000F0E300E076
:0833A40000A24A04AAAAAAAA89
:0400000300000255A2
:00000001FF
